{
  "contractName": "Lottery",
  "abi": [
    {
      "constant": true,
      "inputs": [],
      "name": "answerForTest",
      "outputs": [
        {
          "name": "",
          "type": "bytes32"
        }
      ],
      "payable": false,
      "stateMutability": "view",
      "type": "function",
      "signature": "0x84f7e4f0"
    },
    {
      "constant": true,
      "inputs": [],
      "name": "owner",
      "outputs": [
        {
          "name": "",
          "type": "address"
        }
      ],
      "payable": false,
      "stateMutability": "view",
      "type": "function",
      "signature": "0x8da5cb5b"
    },
    {
      "inputs": [],
      "payable": false,
      "stateMutability": "nonpayable",
      "type": "constructor",
      "signature": "constructor"
    },
    {
      "anonymous": false,
      "inputs": [
        {
          "indexed": false,
          "name": "index",
          "type": "uint256"
        },
        {
          "indexed": false,
          "name": "bettor",
          "type": "address"
        },
        {
          "indexed": false,
          "name": "amount",
          "type": "uint256"
        },
        {
          "indexed": false,
          "name": "challenges",
          "type": "bytes1"
        },
        {
          "indexed": false,
          "name": "answerBlockNumber",
          "type": "uint256"
        }
      ],
      "name": "BET",
      "type": "event",
      "signature": "0x100791de9f40bf2d56ffa6dc5597d2fd0b2703ea70bc7548cd74c04f5d215ab7"
    },
    {
      "anonymous": false,
      "inputs": [
        {
          "indexed": false,
          "name": "index",
          "type": "uint256"
        },
        {
          "indexed": false,
          "name": "bettor",
          "type": "address"
        },
        {
          "indexed": false,
          "name": "amount",
          "type": "uint256"
        },
        {
          "indexed": false,
          "name": "challenges",
          "type": "bytes1"
        },
        {
          "indexed": false,
          "name": "answer",
          "type": "bytes1"
        },
        {
          "indexed": false,
          "name": "answerBlockNumber",
          "type": "uint256"
        }
      ],
      "name": "WIN",
      "type": "event",
      "signature": "0x8219079e2d6c1192fb0ff7f78e6faaf5528ad6687e69749205d87bd4b156912b"
    },
    {
      "anonymous": false,
      "inputs": [
        {
          "indexed": false,
          "name": "index",
          "type": "uint256"
        },
        {
          "indexed": false,
          "name": "bettor",
          "type": "address"
        },
        {
          "indexed": false,
          "name": "amount",
          "type": "uint256"
        },
        {
          "indexed": false,
          "name": "challenges",
          "type": "bytes1"
        },
        {
          "indexed": false,
          "name": "answer",
          "type": "bytes1"
        },
        {
          "indexed": false,
          "name": "answerBlockNumber",
          "type": "uint256"
        }
      ],
      "name": "FAIL",
      "type": "event",
      "signature": "0x3b19d607433249d2ebc766ae82ca3848e9c064f1febb5147bc6e5b21d0adebc5"
    },
    {
      "anonymous": false,
      "inputs": [
        {
          "indexed": false,
          "name": "index",
          "type": "uint256"
        },
        {
          "indexed": false,
          "name": "bettor",
          "type": "address"
        },
        {
          "indexed": false,
          "name": "amount",
          "type": "uint256"
        },
        {
          "indexed": false,
          "name": "challenges",
          "type": "bytes1"
        },
        {
          "indexed": false,
          "name": "answer",
          "type": "bytes1"
        },
        {
          "indexed": false,
          "name": "answerBlockNumber",
          "type": "uint256"
        }
      ],
      "name": "DRAW",
      "type": "event",
      "signature": "0x72ec2e949e4fad9380f9d5db3e2ed0e71cf22c51d8d66424508bdc761a3f4b0e"
    },
    {
      "anonymous": false,
      "inputs": [
        {
          "indexed": false,
          "name": "index",
          "type": "uint256"
        },
        {
          "indexed": false,
          "name": "bettor",
          "type": "address"
        },
        {
          "indexed": false,
          "name": "amount",
          "type": "uint256"
        },
        {
          "indexed": false,
          "name": "challenges",
          "type": "bytes1"
        },
        {
          "indexed": false,
          "name": "answerBlockNumber",
          "type": "uint256"
        }
      ],
      "name": "REFUND",
      "type": "event",
      "signature": "0x59c0185881271a0f53d43e6ab9310091408f9e0ff9ae2512613de800f26b8de4"
    },
    {
      "constant": true,
      "inputs": [],
      "name": "getPot",
      "outputs": [
        {
          "name": "pot",
          "type": "uint256"
        }
      ],
      "payable": false,
      "stateMutability": "view",
      "type": "function",
      "signature": "0x403c9fa8"
    },
    {
      "constant": false,
      "inputs": [
        {
          "name": "challenges",
          "type": "bytes1"
        }
      ],
      "name": "betAndDistribute",
      "outputs": [
        {
          "name": "result",
          "type": "bool"
        }
      ],
      "payable": true,
      "stateMutability": "payable",
      "type": "function",
      "signature": "0xe16ea857"
    },
    {
      "constant": false,
      "inputs": [
        {
          "name": "challenges",
          "type": "bytes1"
        }
      ],
      "name": "bet",
      "outputs": [
        {
          "name": "result",
          "type": "bool"
        }
      ],
      "payable": true,
      "stateMutability": "payable",
      "type": "function",
      "signature": "0xf4b46f5b"
    },
    {
      "constant": false,
      "inputs": [],
      "name": "distribute",
      "outputs": [],
      "payable": false,
      "stateMutability": "nonpayable",
      "type": "function",
      "signature": "0xe4fc6b6d"
    },
    {
      "constant": false,
      "inputs": [
        {
          "name": "answer",
          "type": "bytes32"
        }
      ],
      "name": "setAnswerForTest",
      "outputs": [
        {
          "name": "result",
          "type": "bool"
        }
      ],
      "payable": false,
      "stateMutability": "nonpayable",
      "type": "function",
      "signature": "0x7009fa36"
    },
    {
      "constant": true,
      "inputs": [
        {
          "name": "challenges",
          "type": "bytes1"
        },
        {
          "name": "answer",
          "type": "bytes32"
        }
      ],
      "name": "isMatch",
      "outputs": [
        {
          "name": "",
          "type": "uint8"
        }
      ],
      "payable": false,
      "stateMutability": "pure",
      "type": "function",
      "signature": "0x99a167d7"
    },
    {
      "constant": true,
      "inputs": [
        {
          "name": "index",
          "type": "uint256"
        }
      ],
      "name": "getBetInfo",
      "outputs": [
        {
          "name": "answerBlockNumber",
          "type": "uint256"
        },
        {
          "name": "bettor",
          "type": "address"
        },
        {
          "name": "challenges",
          "type": "bytes1"
        }
      ],
      "payable": false,
      "stateMutability": "view",
      "type": "function",
      "signature": "0x79141f80"
    },
    {
      "constant": true,
      "inputs": [],
      "name": "getETH",
      "outputs": [
        {
          "name": "",
          "type": "uint256"
        }
      ],
      "payable": false,
      "stateMutability": "view",
      "type": "function",
      "signature": "0x14f6c3be"
    }
  ],
  "bytecode": "0x608060405260008060146101000a81548160ff02191690831515021790555034801561002a57600080fd5b50336000806101000a81548173ffffffffffffffffffffffffffffffffffffffff021916908373ffffffffffffffffffffffffffffffffffffffff16021790555061168b8061007a6000396000f3fe6080604052600436106100a4576000357c0100000000000000000000000000000000000000000000000000000000900463ffffffff16806314f6c3be146100a9578063403c9fa8146100d45780637009fa36146100ff57806379141f801461015257806384f7e4f01461021f5780638da5cb5b1461024a57806399a167d7146102a1578063e16ea8571461032a578063e4fc6b6d14610392578063f4b46f5b146103a9575b600080fd5b3480156100b557600080fd5b506100be610411565b6040518082815260200191505060405180910390f35b3480156100e057600080fd5b506100e9610430565b6040518082815260200191505060405180910390f35b34801561010b57600080fd5b506101386004803603602081101561012257600080fd5b810190808035906020019092919050505061043a565b604051808215151515815260200191505060405180910390f35b34801561015e57600080fd5b5061018b6004803603602081101561017557600080fd5b8101908080359060200190929190505050610510565b604051808481526020018373ffffffffffffffffffffffffffffffffffffffff1673ffffffffffffffffffffffffffffffffffffffff168152602001827effffffffffffffffffffffffffffffffffffffffffffffffffffffffffffff19167effffffffffffffffffffffffffffffffffffffffffffffffffffffffffffff19168152602001935050505060405180910390f35b34801561022b57600080fd5b50610234610635565b6040518082815260200191505060405180910390f35b34801561025657600080fd5b5061025f61063b565b604051808273ffffffffffffffffffffffffffffffffffffffff1673ffffffffffffffffffffffffffffffffffffffff16815260200191505060405180910390f35b3480156102ad57600080fd5b50610306600480360360408110156102c457600080fd5b8101908080357effffffffffffffffffffffffffffffffffffffffffffffffffffffffffffff1916906020019092919080359060200190929190505050610660565b6040518082600281111561031657fe5b60ff16815260200191505060405180910390f35b6103786004803603602081101561034057600080fd5b8101908080357effffffffffffffffffffffffffffffffffffffffffffffffffffffffffffff191690602001909291905050506109a9565b604051808215151515815260200191505060405180910390f35b34801561039e57600080fd5b506103a76109c6565b005b6103f7600480360360208110156103bf57600080fd5b8101908080357effffffffffffffffffffffffffffffffffffffffffffffffffffffffffffff19169060200190929190505050611123565b604051808215151515815260200191505060405180910390f35b60003073ffffffffffffffffffffffffffffffffffffffff1631905090565b6000600254905090565b60008060009054906101000a900473ffffffffffffffffffffffffffffffffffffffff1673ffffffffffffffffffffffffffffffffffffffff163373ffffffffffffffffffffffffffffffffffffffff16141515610500576040517f08c379a000000000000000000000000000000000000000000000000000000000815260040180806020018281038252601d8152602001807f4f4e4c59206f776e65722063616e207365742074686520616e7377657200000081525060200191505060405180910390fd5b8160018190555060019050919050565b600080600061051d611605565b6003600086815260200190815260200160002060606040519081016040529081600082015481526020016001820160009054906101000a900473ffffffffffffffffffffffffffffffffffffffff1673ffffffffffffffffffffffffffffffffffffffff1673ffffffffffffffffffffffffffffffffffffffff1681526020016001820160149054906101000a90047f0100000000000000000000000000000000000000000000000000000000000000027effffffffffffffffffffffffffffffffffffffffffffffffffffffffffffff19167effffffffffffffffffffffffffffffffffffffffffffffffffffffffffffff1916815250509050806000015193508060200151925080604001519150509193909250565b60015481565b6000809054906101000a900473ffffffffffffffffffffffffffffffffffffffff1681565b6000808390506000849050600084600060208110151561067c57fe5b1a7f010000000000000000000000000000000000000000000000000000000000000002905060008560006020811015156106b257fe5b1a7f01000000000000000000000000000000000000000000000000000000000000000290506004847effffffffffffffffffffffffffffffffffffffffffffffffffffffffffffff1916908060020a820491505093506004847effffffffffffffffffffffffffffffffffffffffffffffffffffffffffffff19169060020a0293506004827effffffffffffffffffffffffffffffffffffffffffffffffffffffffffffff1916908060020a820491505091506004827effffffffffffffffffffffffffffffffffffffffffffffffffffffffffffff19169060020a0291506004837effffffffffffffffffffffffffffffffffffffffffffffffffffffffffffff19169060020a0292506004837effffffffffffffffffffffffffffffffffffffffffffffffffffffffffffff1916908060020a820491505092506004817effffffffffffffffffffffffffffffffffffffffffffffffffffffffffffff19169060020a0290506004817effffffffffffffffffffffffffffffffffffffffffffffffffffffffffffff1916908060020a82049150509050837effffffffffffffffffffffffffffffffffffffffffffffffffffffffffffff1916827effffffffffffffffffffffffffffffffffffffffffffffffffffffffffffff19161480156108e15750827effffffffffffffffffffffffffffffffffffffffffffffffffffffffffffff1916817effffffffffffffffffffffffffffffffffffffffffffffffffffffffffffff1916145b156108f35760019450505050506109a3565b837effffffffffffffffffffffffffffffffffffffffffffffffffffffffffffff1916827effffffffffffffffffffffffffffffffffffffffffffffffffffffffffffff191614806109885750827effffffffffffffffffffffffffffffffffffffffffffffffffffffffffffff1916817effffffffffffffffffffffffffffffffffffffffffffffffffffffffffffff1916145b1561099a5760029450505050506109a3565b60009450505050505b92915050565b60006109b482611123565b506109bd6109c6565b60019050919050565b6109ce611605565b60008060008060055491505b600454821015611115576003600083815260200190815260200160002060606040519081016040529081600082015481526020016001820160009054906101000a900473ffffffffffffffffffffffffffffffffffffffff1673ffffffffffffffffffffffffffffffffffffffff1673ffffffffffffffffffffffffffffffffffffffff1681526020016001820160149054906101000a90047f0100000000000000000000000000000000000000000000000000000000000000027effffffffffffffffffffffffffffffffffffffffffffffffffffffffffffff19167effffffffffffffffffffffffffffffffffffffffffffffffffffffffffffff1916815250509450610aec85600001516112f8565b935060006002811115610afb57fe5b846002811115610b0757fe5b1415610fd1576000610b1c866000015161134c565b9050610b2c866040015182610660565b935060016002811115610b3b57fe5b846002811115610b4757fe5b1415610cc157610b6686602001516611c37937e0800060025401611373565b915060006002819055507f8219079e2d6c1192fb0ff7f78e6faaf5528ad6687e69749205d87bd4b156912b838760200151848960400151856000602081101515610bac57fe5b1a7f0100000000000000000000000000000000000000000000000000000000000000028b60000151604051808781526020018673ffffffffffffffffffffffffffffffffffffffff1673ffffffffffffffffffffffffffffffffffffffff168152602001858152602001847effffffffffffffffffffffffffffffffffffffffffffffffffffffffffffff19167effffffffffffffffffffffffffffffffffffffffffffffffffffffffffffff19168152602001837effffffffffffffffffffffffffffffffffffffffffffffffffffffffffffff19167effffffffffffffffffffffffffffffffffffffffffffffffffffffffffffff19168152602001828152602001965050505050505060405180910390a15b60006002811115610cce57fe5b846002811115610cda57fe5b1415610e49576611c37937e080006002600082825401925050819055507f3b19d607433249d2ebc766ae82ca3848e9c064f1febb5147bc6e5b21d0adebc583876020015160008960400151856000602081101515610d3457fe5b1a7f0100000000000000000000000000000000000000000000000000000000000000028b60000151604051808781526020018673ffffffffffffffffffffffffffffffffffffffff1673ffffffffffffffffffffffffffffffffffffffff168152602001858152602001847effffffffffffffffffffffffffffffffffffffffffffffffffffffffffffff19167effffffffffffffffffffffffffffffffffffffffffffffffffffffffffffff19168152602001837effffffffffffffffffffffffffffffffffffffffffffffffffffffffffffff19167effffffffffffffffffffffffffffffffffffffffffffffffffffffffffffff19168152602001828152602001965050505050505060405180910390a15b600280811115610e5557fe5b846002811115610e6157fe5b1415610fcf57610e7c86602001516611c37937e08000611373565b91507f72ec2e949e4fad9380f9d5db3e2ed0e71cf22c51d8d66424508bdc761a3f4b0e838760200151848960400151856000602081101515610eba57fe5b1a7f0100000000000000000000000000000000000000000000000000000000000000028b60000151604051808781526020018673ffffffffffffffffffffffffffffffffffffffff1673ffffffffffffffffffffffffffffffffffffffff168152602001858152602001847effffffffffffffffffffffffffffffffffffffffffffffffffffffffffffff19167effffffffffffffffffffffffffffffffffffffffffffffffffffffffffffff19168152602001837effffffffffffffffffffffffffffffffffffffffffffffffffffffffffffff19167effffffffffffffffffffffffffffffffffffffffffffffffffffffffffffff19168152602001828152602001965050505050505060405180910390a15b505b60016002811115610fde57fe5b846002811115610fea57fe5b1415610ff557611115565b60028081111561100157fe5b84600281111561100d57fe5b14156110fe5761102885602001516611c37937e08000611373565b90507f59c0185881271a0f53d43e6ab9310091408f9e0ff9ae2512613de800f26b8de48286602001518388604001518960000151604051808681526020018573ffffffffffffffffffffffffffffffffffffffff1673ffffffffffffffffffffffffffffffffffffffff168152602001848152602001837effffffffffffffffffffffffffffffffffffffffffffffffffffffffffffff19167effffffffffffffffffffffffffffffffffffffffffffffffffffffffffffff191681526020018281526020019550505050505060405180910390a15b6111078261143b565b5081806001019250506109da565b816005819055505050505050565b60006611c37937e08000341415156111a3576040517f08c379a000000000000000000000000000000000000000000000000000000000815260040180806020018281038252600e8152602001807f4e6f7420656e6f7567682045544800000000000000000000000000000000000081525060200191505060405180910390fd5b6111ac8261149f565b1515611220576040517f08c379a00000000000000000000000000000000000000000000000000000000081526004018080602001828103825260198152602001807f4661696c20746f206164642061206e657720426574496e666f0000000000000081525060200191505060405180910390fd5b7f100791de9f40bf2d56ffa6dc5597d2fd0b2703ea70bc7548cd74c04f5d215ab760016004540333348560034301604051808681526020018573ffffffffffffffffffffffffffffffffffffffff1673ffffffffffffffffffffffffffffffffffffffff168152602001848152602001837effffffffffffffffffffffffffffffffffffffffffffffffffffffffffffff19167effffffffffffffffffffffffffffffffffffffffffffffffffffffffffffff191681526020018281526020019550505050505060405180910390a160019050919050565b6000814311801561130c5750816101000143105b1561131a5760009050611347565b814311151561132c5760019050611347565b6101008201431015156113425760029050611347565b600290505b919050565b60008060149054906101000a900460ff166113695760015461136c565b81405b9050919050565b60008060009050600081840390508473ffffffffffffffffffffffffffffffffffffffff166108fc829081150290604051600060405180830381858888f193505050501580156113c7573d6000803e3d6000fd5b506000809054906101000a900473ffffffffffffffffffffffffffffffffffffffff1673ffffffffffffffffffffffffffffffffffffffff166108fc839081150290604051600060405180830381858888f1935050505015801561142f573d6000803e3d6000fd5b50809250505092915050565b6000600360008381526020019081526020016000206000808201600090556001820160006101000a81549073ffffffffffffffffffffffffffffffffffffffff02191690556001820160146101000a81549060ff0219169055505060019050919050565b60006114a9611605565b33816020019073ffffffffffffffffffffffffffffffffffffffff16908173ffffffffffffffffffffffffffffffffffffffff1681525050600343018160000181815250508281604001907effffffffffffffffffffffffffffffffffffffffffffffffffffffffffffff191690817effffffffffffffffffffffffffffffffffffffffffffffffffffffffffffff191681525050806003600060045481526020019081526020016000206000820151816000015560208201518160010160006101000a81548173ffffffffffffffffffffffffffffffffffffffff021916908373ffffffffffffffffffffffffffffffffffffffff16021790555060408201518160010160146101000a81548160ff02191690837f0100000000000000000000000000000000000000000000000000000000000000900402179055509050506004600081548092919060010191905055506001915050919050565b60606040519081016040528060008152602001600073ffffffffffffffffffffffffffffffffffffffff16815260200160007effffffffffffffffffffffffffffffffffffffffffffffffffffffffffffff19168152509056fea165627a7a72305820d9fce213f5f5bf6f7382a6835aedf58c253c16c15ee2ebe385b4db5434d1ddd60029",
  "source": "pragma solidity >=0.4.21 <0.6.0;\r\n\r\ncontract Lottery {\r\n\r\n    struct BetInfo {\r\n        uint256 answerBlockNumber; // 맞추려는 블록번호\r\n        address payable bettor; // 유저의 계좌(베팅을 한 유저의 계좌) ... 컨트랙트에서 해당 주소에 돈을 보내려면 payable이 명시되어야함\r\n        bytes1 challenges;\r\n    }\r\n\r\n    enum BlockStatus { Checkable, NotRevealed, BlockLimitPassed }\r\n    enum BettingResult { Fail, Win, Draw }\r\n\r\n    address payable public owner; // public으로 변수선언시 자동적으로 getter를 만들어줌.\r\n    \r\n    bool private mode = false; // false : test mode, true : real mode(using real blockhash)\r\n    bytes32 public answerForTest;\r\n\r\n    uint256 constant internal BLOCK_LIMIT = 256;\r\n    uint256 constant internal BET_BLOCK_INTERVAL = 3;\r\n    uint256 constant internal BET_AMOUNT = 5 * (10 ** 15); // 단위는 wei.. 즉 5*10^15 wei = 0.005 Ether\r\n\r\n    uint256 private _pot;\r\n\r\n    mapping(uint256 => BetInfo) private _bets; // mapping을 활용한 queue 만들기.\r\n    uint256 private _tail; // 다음에 넣어야 할 위치\r\n    uint256 private _head; // 체크해야 할 위치\r\n\r\n\r\n\r\n    // Event Lists  \r\n    event BET(uint256 index, address bettor, uint256 amount, bytes1 challenges, uint256 answerBlockNumber);\r\n    event WIN(uint256 index, address bettor, uint256 amount, bytes1 challenges, byte answer, uint256 answerBlockNumber);\r\n    event FAIL(uint256 index, address bettor, uint256 amount, bytes1 challenges, byte answer, uint256 answerBlockNumber);\r\n    event DRAW(uint256 index, address bettor, uint256 amount, bytes1 challenges, byte answer, uint256 answerBlockNumber);\r\n    event REFUND(uint256 index, address bettor, uint256 amount, bytes1 challenges,  uint256 answerBlockNumber);\r\n\r\n    constructor() public {\r\n        owner = msg.sender;\r\n    }\r\n\r\n\r\n    function getPot() public view returns (uint256 pot) {\r\n        return _pot;\r\n    }\r\n\r\n\r\n    /**\r\n     * @dev 베팅과 검사를 동시에 한다. (1bet = 0.005 ETH, 베팅용 1byte 글자를 보낸다.)\r\n     * @param challenges 유저가 베팅하고자 하는 글자.\r\n     * @return result 함수가 잘 수행되었는지 확인하는 boolean 값 \r\n     */\r\n    function betAndDistribute(byte challenges) public payable returns (bool result) {\r\n        bet(challenges);\r\n        distribute();\r\n\r\n        return true;\r\n    }\r\n\r\n    // Bet (베팅) : save the bet to the quere\r\n    /**\r\n     * @dev 유저가 베팅을 한 경우 해당 베팅의 내용을 Queue에 넣는다. (1bet = 0.005 ETH, 베팅용 1byte 글자를 보낸다.)\r\n     * 큐에 저장된 베팅 정보는 이후 distribute 함수에서 해결된다.\r\n     * @param challenges 유저가 베팅하고자 하는 글자.\r\n     * @return result 함수가 잘 수행되었는지 확인하는 boolean 값 \r\n     */\r\n    function bet(bytes1 challenges) public payable returns (bool result) {\r\n        // check the Ether first\r\n        require(msg.value == BET_AMOUNT, \"Not enough ETH\");\r\n        // push bet to the queue\r\n        require(pushBet(challenges), \"Fail to add a new BetInfo\");\r\n        // emit event log \r\n        emit BET(_tail-1, msg.sender, msg.value, challenges, block.number + BET_BLOCK_INTERVAL);\r\n        // 이벤트 사용 이유?\r\n        // web3.js 라이브러리에서 블록체인에 찍힌 특정 이벤트 로그를 모아볼 수 있기 때문이다.\r\n        // event 발생에도 gas가 사용됨. emit : 375gas // parameter 당 375gas // 저장할 때 마다 8gas... \r\n\r\n        return true;\r\n    }\r\n\r\n\r\n\r\n    // Distribute (검증)\r\n    /**\r\n     * @dev 베팅 결과값을 확인하고 팟머니를 분배한다.\r\n     * 정답 실패 : 팟머니 축적, 정답 맞춤 : 팟머니 획득, 한글자 맞춤 또는 정답확인 불가: 베팅 금액만 획득\r\n     */\r\n    function distribute() public {\r\n        // Queue 상황 ] 3 4 5 6 7 8 9 \r\n        //            head           tail\r\n        BetInfo memory b;\r\n        BlockStatus currentBlockStatus;\r\n        BettingResult currentBettingResult;\r\n\r\n        uint256 cur;\r\n        uint256 transferAmount;\r\n\r\n        for(cur = _head; cur < _tail; cur++) {\r\n\r\n            b = _bets[cur];\r\n            currentBlockStatus =  getBlockStatus(b.answerBlockNumber);\r\n\r\n            if(currentBlockStatus == BlockStatus.Checkable) {\r\n                bytes32 answerBlockHash = getAnswerBlockHash(b.answerBlockNumber);\r\n                currentBettingResult = isMatch(b.challenges, answerBlockHash);\r\n                if(currentBettingResult == BettingResult.Win) {\r\n                    //transfer pot\r\n                    transferAmount = transferAfterPayingFee(b.bettor, _pot + BET_AMOUNT);\r\n                    //pot is 0\r\n                    _pot = 0;\r\n                    //emit WIN event\r\n                    emit WIN(cur, b.bettor, transferAmount, b.challenges, answerBlockHash[0], b.answerBlockNumber);\r\n                }\r\n                if(currentBettingResult == BettingResult.Fail) {\r\n                    //pot = pot + 0.005\r\n                    _pot += BET_AMOUNT;\r\n                    //emit FAIL event\r\n                    emit FAIL(cur, b.bettor, 0, b.challenges, answerBlockHash[0], b.answerBlockNumber);\r\n                }\r\n                if(currentBettingResult == BettingResult.Draw) {\r\n                    //transfer only BET_AMOUNT\r\n                    transferAmount = transferAfterPayingFee(b.bettor, BET_AMOUNT);\r\n                    //emit DRAW event\r\n                    emit DRAW(cur, b.bettor, transferAmount, b.challenges, answerBlockHash[0], b.answerBlockNumber);\r\n                }\r\n            }\r\n            if(currentBlockStatus == BlockStatus.NotRevealed) {\r\n                break;\r\n            }\r\n            if(currentBlockStatus == BlockStatus.BlockLimitPassed) {\r\n                // refund\r\n                transferAmount = transferAfterPayingFee(b.bettor, BET_AMOUNT);\r\n                // emit refund\r\n                emit REFUND(cur, b.bettor, transferAmount, b.challenges, b.answerBlockNumber);\r\n            }\r\n            // queue remove\r\n            popBet(cur);\r\n        }\r\n        _head = cur;\r\n    }\r\n      // check the answer\r\n\r\n    // 수수료 부과 함수\r\n    function transferAfterPayingFee(address payable addr, uint256 amount) internal returns (uint256) {\r\n        uint256 fee = 0; \r\n        uint256 amountWithoutFee = amount - fee;\r\n        \r\n        //transfer to addr\r\n        addr.transfer(amountWithoutFee);\r\n        //transfer to owner\r\n        owner.transfer(fee);\r\n\r\n        // CAUTION\r\n        // ETH 전송 방식: call(function 호출 시 ETH를 같이 전송 가능) -- 보안문제... 쓰지마라!, \r\n        //               send(실패 시 트랜잭션 거부 X... 단순 false 반환),\r\n        //               transfer(가장 안전)\r\n        return amountWithoutFee;\r\n    }\r\n\r\n    function setAnswerForTest(bytes32 answer) public returns (bool result) {\r\n        require(msg.sender == owner, \"ONLY owner can set the answer\");\r\n        answerForTest = answer;\r\n        return true;\r\n    }\r\n\r\n    function getAnswerBlockHash(uint256 answerBlockNumber) internal view returns (bytes32 answer) {\r\n        return mode ? blockhash(answerBlockNumber): answerForTest;\r\n    }\r\n\r\n\r\n\r\n\r\n    /**\r\n     * @dev 베팅글자와 정답을 확인 및 비교한다.\r\n     * @param challenges  유저가 베팅한 글자\r\n     * @param answer      실제 블록해시의 값\r\n     * @return 정답결과를 반환한다.  \r\n     */\r\n    function isMatch(bytes1 challenges, bytes32 answer) public pure returns (BettingResult) {\r\n        //challenges : 0x??\r\n        //answer : 0x???????......???? (32bytes)\r\n\r\n        byte c1 = challenges; // bytes1 == byte\r\n        byte c2 = challenges;\r\n        byte a1 = answer[0];\r\n        byte a2 = answer[0];\r\n\r\n\r\n        //SHIFT OPERATION\r\n        // Get First NUM\r\n\r\n        c1 = c1 >> 4; // 0xab ==> 0x0a\r\n        c1 = c1 << 4; // 0x0a ==> 0xa0\r\n        a1 = a1 >> 4;\r\n        a1 = a1 << 4;\r\n\r\n        // Get Second NUM\r\n        c2 = c2 << 4; // 0xab -> 0xb0\r\n        c2 = c2 >> 4; // 0xb0 -> 0x0b\r\n        a2 = a2 << 4;\r\n        a2 = a2 >> 4;\r\n\r\n        if(a1 == c1 && a2 == c2) {\r\n            return BettingResult.Win;\r\n        }\r\n        if(a1 == c1 || a2 == c2) {\r\n            return BettingResult.Draw;\r\n        }\r\n        return BettingResult.Fail;\r\n    }\r\n\r\n    function getBlockStatus(uint256 answerBlockNumber) internal view returns (BlockStatus) {\r\n        if(block.number > answerBlockNumber && block.number < BLOCK_LIMIT + answerBlockNumber) {\r\n            return BlockStatus.Checkable;\r\n        }\r\n        if (block.number <= answerBlockNumber ) {\r\n            return BlockStatus.NotRevealed;\r\n        }\r\n        if (block.number >= answerBlockNumber + BLOCK_LIMIT) {\r\n            return BlockStatus.BlockLimitPassed;\r\n        }\r\n        return BlockStatus.BlockLimitPassed;\r\n    }\r\n\r\n    function getBetInfo(uint256 index) public view returns (uint256 answerBlockNumber, address bettor, bytes1 challenges) {\r\n        BetInfo memory b = _bets[index];\r\n        answerBlockNumber = b.answerBlockNumber;\r\n        bettor = b.bettor;\r\n        challenges = b.challenges;\r\n    }\r\n\r\n    function pushBet(bytes1 challenges) internal returns (bool) {\r\n        BetInfo memory b; \r\n\r\n        b.bettor = msg.sender; //20 bytes (address 용량)\r\n        b.answerBlockNumber = block.number + BET_BLOCK_INTERVAL; // 32bytes - 20000\r\n        b.challenges = challenges; // 1byte (20bytes와 합쳐서 20000) (최소 단위가 32bytes이므로...)\r\n\r\n        _bets[_tail] = b;\r\n        _tail++; // 32bytes 값 변화 - 20000(처음 변화시 = 이후 5000 gas씩 감소)\r\n \r\n        return true;\r\n\r\n        // 즉, 21000 + 60000 + 기타 연산비용... \r\n    }\r\n\r\n    function popBet(uint256 index) internal returns (bool) {\r\n        delete _bets[index];\r\n        return true;\r\n        // delete를 하면 gas를 돌려받는다!?\r\n    }\r\n\r\n    function getETH() public view returns (uint256) {\r\n        return address(this).balance;\r\n    }\r\n}",
  "sourcePath": "C:/Users/khw64/OneDrive/문서/GitHub/kwon1992.github.io/lottery-smart-contract/contracts/Lottery.sol",
  "compiler": {
    "name": "solc",
    "version": "0.5.0+commit.1d4f565a.Emscripten.clang"
  },
  "schemaVersion": "3.0.3",
  "updatedAt": "2019-08-12T07:54:32.726Z",
  "devdoc": {
    "methods": {
      "bet(bytes1)": {
        "details": "유저가 베팅을 한 경우 해당 베팅의 내용을 Queue에 넣는다. (1bet = 0.005 ETH, 베팅용 1byte 글자를 보낸다.)\r 큐에 저장된 베팅 정보는 이후 distribute 함수에서 해결된다.\r",
        "params": {
          "challenges": "유저가 베팅하고자 하는 글자.\r"
        },
        "return": "result 함수가 잘 수행되었는지 확인하는 boolean 값 \r"
      },
      "betAndDistribute(bytes1)": {
        "details": "베팅과 검사를 동시에 한다. (1bet = 0.005 ETH, 베팅용 1byte 글자를 보낸다.)\r",
        "params": {
          "challenges": "유저가 베팅하고자 하는 글자.\r"
        },
        "return": "result 함수가 잘 수행되었는지 확인하는 boolean 값 \r"
      },
      "distribute()": {
        "details": "베팅 결과값을 확인하고 팟머니를 분배한다.\r 정답 실패 : 팟머니 축적, 정답 맞춤 : 팟머니 획득, 한글자 맞춤 또는 정답확인 불가: 베팅 금액만 획득\r"
      },
      "isMatch(bytes1,bytes32)": {
        "details": "베팅글자와 정답을 확인 및 비교한다.\r",
        "params": {
          "answer": "실제 블록해시의 값\r",
          "challenges": "유저가 베팅한 글자\r"
        },
        "return": "정답결과를 반환한다.  \r"
      }
    }
  },
  "userdoc": {
    "methods": {}
  }
}